{
  "_format": "hh-sol-artifact-1",
  "contractName": "recovery",
  "sourceName": "contracts/recovery.sol",
  "abi": [
    {
      "anonymous": false,
      "inputs": [
        {
          "indexed": true,
          "internalType": "address",
          "name": "previousOwner",
          "type": "address"
        },
        {
          "indexed": true,
          "internalType": "address",
          "name": "newOwner",
          "type": "address"
        }
      ],
      "name": "OwnershipTransferred",
      "type": "event"
    },
    {
      "inputs": [],
      "name": "owner",
      "outputs": [
        {
          "internalType": "address",
          "name": "",
          "type": "address"
        }
      ],
      "stateMutability": "view",
      "type": "function"
    },
    {
      "inputs": [],
      "name": "renounceOwnership",
      "outputs": [],
      "stateMutability": "nonpayable",
      "type": "function"
    },
    {
      "inputs": [
        {
          "internalType": "address",
          "name": "_tracker",
          "type": "address"
        },
        {
          "internalType": "uint256",
          "name": "id",
          "type": "uint256"
        }
      ],
      "name": "retrieve721",
      "outputs": [],
      "stateMutability": "nonpayable",
      "type": "function"
    },
    {
      "inputs": [
        {
          "internalType": "address",
          "name": "_tracker",
          "type": "address"
        },
        {
          "internalType": "uint256",
          "name": "amount",
          "type": "uint256"
        }
      ],
      "name": "retrieveERC20",
      "outputs": [],
      "stateMutability": "nonpayable",
      "type": "function"
    },
    {
      "inputs": [],
      "name": "retrieveETH",
      "outputs": [],
      "stateMutability": "nonpayable",
      "type": "function"
    },
    {
      "inputs": [
        {
          "internalType": "address",
          "name": "newOwner",
          "type": "address"
        }
      ],
      "name": "transferOwnership",
      "outputs": [],
      "stateMutability": "nonpayable",
      "type": "function"
    }
  ],
  "bytecode": "0x608060405234801561001057600080fd5b5061001a3361001f565b61006f565b600080546001600160a01b038381166001600160a01b0319831681178455604051919092169283917f8be0079c531659141344cd1fd0a4f28419497f9722a3daafe3b4186f6b6457e09190a35050565b6104e88061007e6000396000f3fe608060405234801561001057600080fd5b50600436106100625760003560e01c806317fd1e2f14610067578063715018a61461007c5780638da5cb5b14610084578063a5b3abfb146100a3578063d5b014c3146100b6578063f2fde38b146100be575b600080fd5b61007a610075366004610431565b6100d1565b005b61007a610189565b600054604080516001600160a01b039092168252519081900360200190f35b61007a6100b1366004610431565b6101bf565b61007a610253565b61007a6100cc36600461040f565b61030f565b6000546001600160a01b031633146101045760405162461bcd60e51b81526004016100fb9061047d565b60405180910390fd5b60405163a9059cbb60e01b8152336004820152602481018290526001600160a01b0383169063a9059cbb90604401602060405180830381600087803b15801561014c57600080fd5b505af1158015610160573d6000803e3d6000fd5b505050506040513d601f19601f82011682018060405250810190610184919061045b565b505050565b6000546001600160a01b031633146101b35760405162461bcd60e51b81526004016100fb9061047d565b6101bd60006103a3565b565b6000546001600160a01b031633146101e95760405162461bcd60e51b81526004016100fb9061047d565b6040516323b872dd60e01b8152306004820152336024820152604481018290526001600160a01b038316906323b872dd90606401600060405180830381600087803b15801561023757600080fd5b505af115801561024b573d6000803e3d6000fd5b505050505050565b6000546001600160a01b0316331461027d5760405162461bcd60e51b81526004016100fb9061047d565b604051600090339047908381818185875af1925050503d80600081146102bf576040519150601f19603f3d011682016040523d82523d6000602084013e6102c4565b606091505b505090508061030c5760405162461bcd60e51b81526020600482015260146024820152732330b4b632b2103a379039b2b7321022ba3432b960611b60448201526064016100fb565b50565b6000546001600160a01b031633146103395760405162461bcd60e51b81526004016100fb9061047d565b6001600160a01b03811661039e5760405162461bcd60e51b815260206004820152602660248201527f4f776e61626c653a206e6577206f776e657220697320746865207a65726f206160448201526564647265737360d01b60648201526084016100fb565b61030c815b600080546001600160a01b038381166001600160a01b0319831681178455604051919092169283917f8be0079c531659141344cd1fd0a4f28419497f9722a3daafe3b4186f6b6457e09190a35050565b80356001600160a01b038116811461040a57600080fd5b919050565b60006020828403121561042157600080fd5b61042a826103f3565b9392505050565b6000806040838503121561044457600080fd5b61044d836103f3565b946020939093013593505050565b60006020828403121561046d57600080fd5b8151801515811461042a57600080fd5b6020808252818101527f4f776e61626c653a2063616c6c6572206973206e6f7420746865206f776e657260408201526060019056fea26469706673582212207eae06d724c465485aae0261867aa7c68e5d331b0d56bcef2b5283772c30867a64736f6c63430008070033",
  "linkReferences": {},
  "deployedLinkReferences": {}
}