{
  "_format": "hh-sol-artifact-1",
  "contractName": "texture_punks",
  "sourceName": "contracts/texture_punks.sol",
  "abi": [
    {
      "inputs": [
        {
          "internalType": "address",
          "name": "_signer",
          "type": "address"
        },
        {
          "internalType": "address",
          "name": "_wallet",
          "type": "address"
        }
      ],
      "stateMutability": "nonpayable",
      "type": "constructor"
    },
    {
      "anonymous": false,
      "inputs": [
        {
          "indexed": true,
          "internalType": "address",
          "name": "owner",
          "type": "address"
        },
        {
          "indexed": true,
          "internalType": "address",
          "name": "approved",
          "type": "address"
        },
        {
          "indexed": true,
          "internalType": "uint256",
          "name": "tokenId",
          "type": "uint256"
        }
      ],
      "name": "Approval",
      "type": "event"
    },
    {
      "anonymous": false,
      "inputs": [
        {
          "indexed": true,
          "internalType": "address",
          "name": "owner",
          "type": "address"
        },
        {
          "indexed": true,
          "internalType": "address",
          "name": "operator",
          "type": "address"
        },
        {
          "indexed": false,
          "internalType": "bool",
          "name": "approved",
          "type": "bool"
        }
      ],
      "name": "ApprovalForAll",
      "type": "event"
    },
    {
      "anonymous": false,
      "inputs": [
        {
          "indexed": true,
          "internalType": "address",
          "name": "previousOwner",
          "type": "address"
        },
        {
          "indexed": true,
          "internalType": "address",
          "name": "newOwner",
          "type": "address"
        }
      ],
      "name": "OwnershipTransferred",
      "type": "event"
    },
    {
      "anonymous": false,
      "inputs": [
        {
          "indexed": false,
          "internalType": "address",
          "name": "oldSigner",
          "type": "address"
        },
        {
          "indexed": false,
          "internalType": "address",
          "name": "newSigner",
          "type": "address"
        }
      ],
      "name": "SignerChanged",
      "type": "event"
    },
    {
      "anonymous": false,
      "inputs": [
        {
          "indexed": true,
          "internalType": "address",
          "name": "from",
          "type": "address"
        },
        {
          "indexed": true,
          "internalType": "address",
          "name": "to",
          "type": "address"
        },
        {
          "indexed": true,
          "internalType": "uint256",
          "name": "tokenId",
          "type": "uint256"
        }
      ],
      "name": "Transfer",
      "type": "event"
    },
    {
      "anonymous": false,
      "inputs": [
        {
          "indexed": false,
          "internalType": "address",
          "name": "oldWallet",
          "type": "address"
        },
        {
          "indexed": false,
          "internalType": "address",
          "name": "newWallet",
          "type": "address"
        }
      ],
      "name": "WalletChanged",
      "type": "event"
    },
    {
      "inputs": [
        {
          "internalType": "address",
          "name": "to",
          "type": "address"
        },
        {
          "internalType": "uint256",
          "name": "tokenId",
          "type": "uint256"
        }
      ],
      "name": "approve",
      "outputs": [],
      "stateMutability": "nonpayable",
      "type": "function"
    },
    {
      "inputs": [
        {
          "components": [
            {
              "internalType": "uint8",
              "name": "head",
              "type": "uint8"
            },
            {
              "internalType": "uint8",
              "name": "hair_hat",
              "type": "uint8"
            },
            {
              "internalType": "uint8",
              "name": "mouth",
              "type": "uint8"
            },
            {
              "internalType": "uint8",
              "name": "facial_hair",
              "type": "uint8"
            },
            {
              "internalType": "uint8",
              "name": "nose",
              "type": "uint8"
            },
            {
              "internalType": "uint8",
              "name": "eyes_eyewear",
              "type": "uint8"
            },
            {
              "internalType": "uint8",
              "name": "cyborg_parts",
              "type": "uint8"
            },
            {
              "internalType": "uint8",
              "name": "chokers",
              "type": "uint8"
            },
            {
              "internalType": "uint8",
              "name": "misc",
              "type": "uint8"
            }
          ],
          "internalType": "struct texture_punks.attribs",
          "name": "a",
          "type": "tuple"
        }
      ],
      "name": "attrCount",
      "outputs": [
        {
          "internalType": "uint256",
          "name": "",
          "type": "uint256"
        }
      ],
      "stateMutability": "pure",
      "type": "function"
    },
    {
      "inputs": [
        {
          "components": [
            {
              "internalType": "uint8",
              "name": "head",
              "type": "uint8"
            },
            {
              "internalType": "uint8",
              "name": "hair_hat",
              "type": "uint8"
            },
            {
              "internalType": "uint8",
              "name": "mouth",
              "type": "uint8"
            },
            {
              "internalType": "uint8",
              "name": "facial_hair",
              "type": "uint8"
            },
            {
              "internalType": "uint8",
              "name": "nose",
              "type": "uint8"
            },
            {
              "internalType": "uint8",
              "name": "eyes_eyewear",
              "type": "uint8"
            },
            {
              "internalType": "uint8",
              "name": "cyborg_parts",
              "type": "uint8"
            },
            {
              "internalType": "uint8",
              "name": "chokers",
              "type": "uint8"
            },
            {
              "internalType": "uint8",
              "name": "misc",
              "type": "uint8"
            }
          ],
          "internalType": "struct texture_punks.attribs",
          "name": "a",
          "type": "tuple"
        }
      ],
      "name": "attrToTokenId",
      "outputs": [
        {
          "internalType": "uint256",
          "name": "",
          "type": "uint256"
        }
      ],
      "stateMutability": "pure",
      "type": "function"
    },
    {
      "inputs": [
        {
          "internalType": "address",
          "name": "owner",
          "type": "address"
        }
      ],
      "name": "balanceOf",
      "outputs": [
        {
          "internalType": "uint256",
          "name": "",
          "type": "uint256"
        }
      ],
      "stateMutability": "view",
      "type": "function"
    },
    {
      "inputs": [
        {
          "internalType": "address",
          "name": "newSigner",
          "type": "address"
        }
      ],
      "name": "changeSigner",
      "outputs": [],
      "stateMutability": "nonpayable",
      "type": "function"
    },
    {
      "inputs": [
        {
          "internalType": "address",
          "name": "newWallet",
          "type": "address"
        }
      ],
      "name": "changeWallet",
      "outputs": [],
      "stateMutability": "nonpayable",
      "type": "function"
    },
    {
      "inputs": [
        {
          "internalType": "uint256",
          "name": "tokenId",
          "type": "uint256"
        }
      ],
      "name": "getApproved",
      "outputs": [
        {
          "internalType": "address",
          "name": "",
          "type": "address"
        }
      ],
      "stateMutability": "view",
      "type": "function"
    },
    {
      "inputs": [
        {
          "internalType": "address",
          "name": "owner",
          "type": "address"
        },
        {
          "internalType": "address",
          "name": "operator",
          "type": "address"
        }
      ],
      "name": "isApprovedForAll",
      "outputs": [
        {
          "internalType": "bool",
          "name": "",
          "type": "bool"
        }
      ],
      "stateMutability": "view",
      "type": "function"
    },
    {
      "inputs": [
        {
          "internalType": "string",
          "name": "uri",
          "type": "string"
        },
        {
          "components": [
            {
              "internalType": "uint8",
              "name": "head",
              "type": "uint8"
            },
            {
              "internalType": "uint8",
              "name": "hair_hat",
              "type": "uint8"
            },
            {
              "internalType": "uint8",
              "name": "mouth",
              "type": "uint8"
            },
            {
              "internalType": "uint8",
              "name": "facial_hair",
              "type": "uint8"
            },
            {
              "internalType": "uint8",
              "name": "nose",
              "type": "uint8"
            },
            {
              "internalType": "uint8",
              "name": "eyes_eyewear",
              "type": "uint8"
            },
            {
              "internalType": "uint8",
              "name": "cyborg_parts",
              "type": "uint8"
            },
            {
              "internalType": "uint8",
              "name": "chokers",
              "type": "uint8"
            },
            {
              "internalType": "uint8",
              "name": "misc",
              "type": "uint8"
            }
          ],
          "internalType": "struct texture_punks.attribs",
          "name": "attributes",
          "type": "tuple"
        },
        {
          "internalType": "bytes",
          "name": "signature",
          "type": "bytes"
        }
      ],
      "name": "mint",
      "outputs": [],
      "stateMutability": "payable",
      "type": "function"
    },
    {
      "inputs": [],
      "name": "name",
      "outputs": [
        {
          "internalType": "string",
          "name": "",
          "type": "string"
        }
      ],
      "stateMutability": "view",
      "type": "function"
    },
    {
      "inputs": [],
      "name": "owner",
      "outputs": [
        {
          "internalType": "address",
          "name": "",
          "type": "address"
        }
      ],
      "stateMutability": "view",
      "type": "function"
    },
    {
      "inputs": [
        {
          "internalType": "uint256",
          "name": "tokenId",
          "type": "uint256"
        }
      ],
      "name": "ownerOf",
      "outputs": [
        {
          "internalType": "address",
          "name": "",
          "type": "address"
        }
      ],
      "stateMutability": "view",
      "type": "function"
    },
    {
      "inputs": [
        {
          "internalType": "address",
          "name": "buyer",
          "type": "address"
        },
        {
          "internalType": "string",
          "name": "uri",
          "type": "string"
        },
        {
          "components": [
            {
              "internalType": "uint8",
              "name": "head",
              "type": "uint8"
            },
            {
              "internalType": "uint8",
              "name": "hair_hat",
              "type": "uint8"
            },
            {
              "internalType": "uint8",
              "name": "mouth",
              "type": "uint8"
            },
            {
              "internalType": "uint8",
              "name": "facial_hair",
              "type": "uint8"
            },
            {
              "internalType": "uint8",
              "name": "nose",
              "type": "uint8"
            },
            {
              "internalType": "uint8",
              "name": "eyes_eyewear",
              "type": "uint8"
            },
            {
              "internalType": "uint8",
              "name": "cyborg_parts",
              "type": "uint8"
            },
            {
              "internalType": "uint8",
              "name": "chokers",
              "type": "uint8"
            },
            {
              "internalType": "uint8",
              "name": "misc",
              "type": "uint8"
            }
          ],
          "internalType": "struct texture_punks.attribs",
          "name": "attributes",
          "type": "tuple"
        }
      ],
      "name": "punkHash",
      "outputs": [
        {
          "internalType": "uint256",
          "name": "tokenId",
          "type": "uint256"
        },
        {
          "internalType": "bytes32",
          "name": "hash",
          "type": "bytes32"
        }
      ],
      "stateMutability": "pure",
      "type": "function"
    },
    {
      "inputs": [],
      "name": "renounceOwnership",
      "outputs": [],
      "stateMutability": "nonpayable",
      "type": "function"
    },
    {
      "inputs": [
        {
          "internalType": "address",
          "name": "_tracker",
          "type": "address"
        },
        {
          "internalType": "uint256",
          "name": "id",
          "type": "uint256"
        }
      ],
      "name": "retrieve721",
      "outputs": [],
      "stateMutability": "nonpayable",
      "type": "function"
    },
    {
      "inputs": [
        {
          "internalType": "address",
          "name": "_tracker",
          "type": "address"
        },
        {
          "internalType": "uint256",
          "name": "amount",
          "type": "uint256"
        }
      ],
      "name": "retrieveERC20",
      "outputs": [],
      "stateMutability": "nonpayable",
      "type": "function"
    },
    {
      "inputs": [],
      "name": "retrieveETH",
      "outputs": [],
      "stateMutability": "nonpayable",
      "type": "function"
    },
    {
      "inputs": [
        {
          "internalType": "address",
          "name": "from",
          "type": "address"
        },
        {
          "internalType": "address",
          "name": "to",
          "type": "address"
        },
        {
          "internalType": "uint256",
          "name": "tokenId",
          "type": "uint256"
        }
      ],
      "name": "safeTransferFrom",
      "outputs": [],
      "stateMutability": "nonpayable",
      "type": "function"
    },
    {
      "inputs": [
        {
          "internalType": "address",
          "name": "from",
          "type": "address"
        },
        {
          "internalType": "address",
          "name": "to",
          "type": "address"
        },
        {
          "internalType": "uint256",
          "name": "tokenId",
          "type": "uint256"
        },
        {
          "internalType": "bytes",
          "name": "_data",
          "type": "bytes"
        }
      ],
      "name": "safeTransferFrom",
      "outputs": [],
      "stateMutability": "nonpayable",
      "type": "function"
    },
    {
      "inputs": [
        {
          "internalType": "address",
          "name": "operator",
          "type": "address"
        },
        {
          "internalType": "bool",
          "name": "approved",
          "type": "bool"
        }
      ],
      "name": "setApprovalForAll",
      "outputs": [],
      "stateMutability": "nonpayable",
      "type": "function"
    },
    {
      "inputs": [
        {
          "internalType": "bytes4",
          "name": "interfaceId",
          "type": "bytes4"
        }
      ],
      "name": "supportsInterface",
      "outputs": [
        {
          "internalType": "bool",
          "name": "",
          "type": "bool"
        }
      ],
      "stateMutability": "view",
      "type": "function"
    },
    {
      "inputs": [],
      "name": "symbol",
      "outputs": [
        {
          "internalType": "string",
          "name": "",
          "type": "string"
        }
      ],
      "stateMutability": "view",
      "type": "function"
    },
    {
      "inputs": [
        {
          "internalType": "uint256",
          "name": "index",
          "type": "uint256"
        }
      ],
      "name": "tokenByIndex",
      "outputs": [
        {
          "internalType": "uint256",
          "name": "",
          "type": "uint256"
        }
      ],
      "stateMutability": "view",
      "type": "function"
    },
    {
      "inputs": [
        {
          "internalType": "address",
          "name": "owner",
          "type": "address"
        },
        {
          "internalType": "uint256",
          "name": "index",
          "type": "uint256"
        }
      ],
      "name": "tokenOfOwnerByIndex",
      "outputs": [
        {
          "internalType": "uint256",
          "name": "",
          "type": "uint256"
        }
      ],
      "stateMutability": "view",
      "type": "function"
    },
    {
      "inputs": [
        {
          "internalType": "uint256",
          "name": "tokenId",
          "type": "uint256"
        }
      ],
      "name": "tokenURI",
      "outputs": [
        {
          "internalType": "string",
          "name": "uri",
          "type": "string"
        }
      ],
      "stateMutability": "view",
      "type": "function"
    },
    {
      "inputs": [],
      "name": "totalSupply",
      "outputs": [
        {
          "internalType": "uint256",
          "name": "",
          "type": "uint256"
        }
      ],
      "stateMutability": "view",
      "type": "function"
    },
    {
      "inputs": [
        {
          "internalType": "address",
          "name": "from",
          "type": "address"
        },
        {
          "internalType": "address",
          "name": "to",
          "type": "address"
        },
        {
          "internalType": "uint256",
          "name": "tokenId",
          "type": "uint256"
        }
      ],
      "name": "transferFrom",
      "outputs": [],
      "stateMutability": "nonpayable",
      "type": "function"
    },
    {
      "inputs": [
        {
          "internalType": "address",
          "name": "newOwner",
          "type": "address"
        }
      ],
      "name": "transferOwnership",
      "outputs": [],
      "stateMutability": "nonpayable",
      "type": "function"
    }
  ],
  "bytecode": "0x60806040523480156200001157600080fd5b50604051620029bd380380620029bd833981016040819052620000349162000202565b604080518082018252600d81526c546578747572652050756e6b7360981b6020808301918252835180850190945260038452620a8a0b60eb1b90840152815191929162000084916000916200013f565b5080516200009a9060019060208401906200013f565b505050620000b7620000b1620000e960201b60201c565b620000ed565b600d80546001600160a01b039384166001600160a01b031991821617909155600e805492909316911617905562000277565b3390565b600a80546001600160a01b038381166001600160a01b0319831681179093556040519116919082907f8be0079c531659141344cd1fd0a4f28419497f9722a3daafe3b4186f6b6457e090600090a35050565b8280546200014d906200023a565b90600052602060002090601f016020900481019282620001715760008555620001bc565b82601f106200018c57805160ff1916838001178555620001bc565b82800160010185558215620001bc579182015b82811115620001bc5782518255916020019190600101906200019f565b50620001ca929150620001ce565b5090565b5b80821115620001ca5760008155600101620001cf565b80516001600160a01b0381168114620001fd57600080fd5b919050565b600080604083850312156200021657600080fd5b6200022183620001e5565b91506200023160208401620001e5565b90509250929050565b600181811c908216806200024f57607f821691505b602082108114156200027157634e487b7160e01b600052602260045260246000fd5b50919050565b61273680620002876000396000f3fe6080604052600436106101b75760003560e01c8063715018a6116100ec578063a5b3abfb1161008a578063c87b56dd11610064578063c87b56dd146104dc578063d5b014c3146104fc578063e985e9c514610511578063f2fde38b1461055a57600080fd5b8063a5b3abfb1461047c578063aad2b7231461049c578063b88d4fde146104bc57600080fd5b806395d89b41116100c657806395d89b41146103f257806398b9a2dc146104075780639fe6ebe814610427578063a22cb4651461045c57600080fd5b8063715018a61461039f5780638da5cb5b146103b457806394aa4a83146103d257600080fd5b806323b872dd116101595780634f6ccce7116101335780634f6ccce71461031f5780636007f5b41461033f5780636352211e1461035f57806370a082311461037f57600080fd5b806323b872dd146102bf5780632f745c59146102df57806342842e0e146102ff57600080fd5b8063081812fc11610195578063081812fc14610228578063095ea7b31461026057806317fd1e2f1461028057806318160ddd146102a057600080fd5b806301ffc9a7146101bc57806302363155146101f157806306fdde0314610206575b600080fd5b3480156101c857600080fd5b506101dc6101d73660046122a2565b61057a565b60405190151581526020015b60405180910390f35b6102046101ff3660046122dc565b6105a5565b005b34801561021257600080fd5b5061021b6108fd565b6040516101e8919061246d565b34801561023457600080fd5b50610248610243366004612380565b61098f565b6040516001600160a01b0390911681526020016101e8565b34801561026c57600080fd5b5061020461027b36600461225b565b610a24565b34801561028c57600080fd5b5061020461029b36600461225b565b610b3a565b3480156102ac57600080fd5b506008545b6040519081526020016101e8565b3480156102cb57600080fd5b506102046102da3660046120c1565b610be4565b3480156102eb57600080fd5b506102b16102fa36600461225b565b610c15565b34801561030b57600080fd5b5061020461031a3660046120c1565b610cab565b34801561032b57600080fd5b506102b161033a366004612380565b610cc6565b34801561034b57600080fd5b506102b161035a366004612363565b610d59565b34801561036b57600080fd5b5061024861037a366004612380565b610e21565b34801561038b57600080fd5b506102b161039a36600461206c565b610e98565b3480156103ab57600080fd5b50610204610f1f565b3480156103c057600080fd5b50600a546001600160a01b0316610248565b3480156103de57600080fd5b506102b16103ed366004612363565b610f55565b3480156103fe57600080fd5b5061021b610fd0565b34801561041357600080fd5b5061020461042236600461206c565b610fdf565b34801561043357600080fd5b506104476104423660046121f4565b611072565b604080519283526020830191909152016101e8565b34801561046857600080fd5b506102046104773660046121bd565b6110c2565b34801561048857600080fd5b5061020461049736600461225b565b6110d1565b3480156104a857600080fd5b506102046104b736600461206c565b611165565b3480156104c857600080fd5b506102046104d73660046120fd565b6111f8565b3480156104e857600080fd5b5061021b6104f7366004612380565b611230565b34801561050857600080fd5b5061020461132c565b34801561051d57600080fd5b506101dc61052c36600461208e565b6001600160a01b03918216600090815260056020908152604080832093909416825291909152205460ff1690565b34801561056657600080fd5b5061020461057536600461206c565b6113e8565b60006001600160e01b0319821663780e9d6360e01b148061059f575061059f82611480565b92915050565b6000806105b433888888611072565b60008281526002602052604090205491935091506001600160a01b03161561062d5760405162461bcd60e51b815260206004820152602160248201527f546869732050756e782068617320616c7265616479206265656e206d696e74656044820152601960fa1b60648201526084015b60405180910390fd5b6041831461067d5760405162461bcd60e51b815260206004820152601860248201527f496e76616c6964207369676e6174757265206c656e67746800000000000000006044820152606401610624565b600061068c60208286886125b3565b6106959161262b565b905060006106a76040602087896125b3565b6106b09161262b565b90506000868660408181106106c7576106c76126b0565b6040517f19457468657265756d205369676e6564204d6573736167653a0a3332000000006020820152603c810188905292013560f81c9250600091605c01905060408051601f198184030181528282528051602091820120600080855291840180845281905260ff86169284019290925260608301879052608083018690529092509060019060a0016020604051602081039080840390855afa158015610772573d6000803e3d6000fd5b5050604051601f190151600d549092506001600160a01b0380841691161490506107d65760405162461bcd60e51b815260206004820152601560248201527424b73b30b634b21030baba3437b934b9b0ba34b7b760591b6044820152606401610624565b60006107e18b610d59565b336000908152600b60205260408120549192509060ff1615610821576702c68af0bb14000061081083826125f5565b61081a91906125dd565b9050610853565b600382101561083257506000610853565b6702c68af0bb140000610846600384612614565b61085091906125f5565b90505b8034146108995760405162461bcd60e51b8152602060048201526014602482015273125b98dbdc9c9958dd081d985b1d59481cd95b9d60621b6044820152606401610624565b336000818152600b60205260409020805460ff191660011790556108bd908a6114d0565b6000898152600c602052604090206108d6908f8f611ea6565b50600e546108ed906001600160a01b03163461161e565b5050505050505050505050505050565b60606000805461090c90612649565b80601f016020809104026020016040519081016040528092919081815260200182805461093890612649565b80156109855780601f1061095a57610100808354040283529160200191610985565b820191906000526020600020905b81548152906001019060200180831161096857829003601f168201915b5050505050905090565b6000818152600260205260408120546001600160a01b0316610a085760405162461bcd60e51b815260206004820152602c60248201527f4552433732313a20617070726f76656420717565727920666f72206e6f6e657860448201526b34b9ba32b73a103a37b5b2b760a11b6064820152608401610624565b506000908152600460205260409020546001600160a01b031690565b6000610a2f82610e21565b9050806001600160a01b0316836001600160a01b03161415610a9d5760405162461bcd60e51b815260206004820152602160248201527f4552433732313a20617070726f76616c20746f2063757272656e74206f776e656044820152603960f91b6064820152608401610624565b336001600160a01b0382161480610ab95750610ab9813361052c565b610b2b5760405162461bcd60e51b815260206004820152603860248201527f4552433732313a20617070726f76652063616c6c6572206973206e6f74206f7760448201527f6e6572206e6f7220617070726f76656420666f7220616c6c00000000000000006064820152608401610624565b610b3583836116b8565b505050565b600a546001600160a01b03163314610b645760405162461bcd60e51b8152600401610624906124d2565b60405163a9059cbb60e01b8152336004820152602481018290526001600160a01b0383169063a9059cbb90604401602060405180830381600087803b158015610bac57600080fd5b505af1158015610bc0573d6000803e3d6000fd5b505050506040513d601f19601f82011682018060405250810190610b359190612285565b610bee3382611726565b610c0a5760405162461bcd60e51b815260040161062490612507565b610b3583838361181d565b6000610c2083610e98565b8210610c825760405162461bcd60e51b815260206004820152602b60248201527f455243373231456e756d657261626c653a206f776e657220696e646578206f7560448201526a74206f6620626f756e647360a81b6064820152608401610624565b506001600160a01b03919091166000908152600660209081526040808320938352929052205490565b610b35838383604051806020016040528060008152506111f8565b6000610cd160085490565b8210610d345760405162461bcd60e51b815260206004820152602c60248201527f455243373231456e756d657261626c653a20676c6f62616c20696e646578206f60448201526b7574206f6620626f756e647360a01b6064820152608401610624565b60088281548110610d4757610d476126b0565b90600052602060002001549050919050565b6000610d698261010001516119c4565b610d768360e001516119c4565b610d838460c001516119c4565b610d908560a001516119c4565b610d9d86608001516119c4565b610daa87606001516119c4565b610db788604001516119c4565b610dc489602001516119c4565b8951610dd19060006119e2565b610ddb91906125dd565b610de591906125dd565b610def91906125dd565b610df991906125dd565b610e0391906125dd565b610e0d91906125dd565b610e1791906125dd565b61059f91906125dd565b6000818152600260205260408120546001600160a01b03168061059f5760405162461bcd60e51b815260206004820152602960248201527f4552433732313a206f776e657220717565727920666f72206e6f6e657869737460448201526832b73a103a37b5b2b760b91b6064820152608401610624565b60006001600160a01b038216610f035760405162461bcd60e51b815260206004820152602a60248201527f4552433732313a2062616c616e636520717565727920666f7220746865207a65604482015269726f206164647265737360b01b6064820152608401610624565b506001600160a01b031660009081526003602052604090205490565b600a546001600160a01b03163314610f495760405162461bcd60e51b8152600401610624906124d2565b610f5360006119fd565b565b6000610f6782610100015160086119e2565b610f768360e0015160076119e2565b610f858460c0015160066119e2565b610f948560a0015160056119e2565b610fa3866080015160046119e2565b610fb2876060015160036119e2565b610fc1886040015160026119e2565b610dc4896020015160016119e2565b60606001805461090c90612649565b600a546001600160a01b031633146110095760405162461bcd60e51b8152600401610624906124d2565b600e54604080516001600160a01b03928316815291831660208301527f64cbbd34f3faebfd04eff088ae5832f6d254dbb81820b0055e9d85c534aa700d910160405180910390a1600e80546001600160a01b0319166001600160a01b0392909216919091179055565b600080600061108084610f55565b905060008787878460405160200161109b9493929190612423565b60408051808303601f19018152919052805160209091012091989197509095505050505050565b6110cd338383611a4f565b5050565b600a546001600160a01b031633146110fb5760405162461bcd60e51b8152600401610624906124d2565b6040516323b872dd60e01b8152306004820152336024820152604481018290526001600160a01b038316906323b872dd90606401600060405180830381600087803b15801561114957600080fd5b505af115801561115d573d6000803e3d6000fd5b505050505050565b600a546001600160a01b0316331461118f5760405162461bcd60e51b8152600401610624906124d2565b600d54604080516001600160a01b03928316815291831660208301527feeb293e1f8f3a9db91ade748726387ed1352ca78f5430c5f06fe3d1e1ad50579910160405180910390a1600d80546001600160a01b0319166001600160a01b0392909216919091179055565b6112023383611726565b61121e5760405162461bcd60e51b815260040161062490612507565b61122a84848484611b1e565b50505050565b6000818152600260205260409020546060906001600160a01b031661128e5760405162461bcd60e51b81526020600482015260146024820152731d1bdad95b88191bd95cc81b9bdd08195e1a5cdd60621b6044820152606401610624565b6000828152600c6020526040902080546112a790612649565b80601f01602080910402602001604051908101604052809291908181526020018280546112d390612649565b80156113205780601f106112f557610100808354040283529160200191611320565b820191906000526020600020905b81548152906001019060200180831161130357829003601f168201915b50505050509050919050565b600a546001600160a01b031633146113565760405162461bcd60e51b8152600401610624906124d2565b604051600090339047908381818185875af1925050503d8060008114611398576040519150601f19603f3d011682016040523d82523d6000602084013e61139d565b606091505b50509050806113e55760405162461bcd60e51b81526020600482015260146024820152732330b4b632b2103a379039b2b7321022ba3432b960611b6044820152606401610624565b50565b600a546001600160a01b031633146114125760405162461bcd60e51b8152600401610624906124d2565b6001600160a01b0381166114775760405162461bcd60e51b815260206004820152602660248201527f4f776e61626c653a206e6577206f776e657220697320746865207a65726f206160448201526564647265737360d01b6064820152608401610624565b6113e5816119fd565b60006001600160e01b031982166380ac58cd60e01b14806114b157506001600160e01b03198216635b5e139f60e01b145b8061059f57506301ffc9a760e01b6001600160e01b031983161461059f565b6001600160a01b0382166115265760405162461bcd60e51b815260206004820181905260248201527f4552433732313a206d696e7420746f20746865207a65726f20616464726573736044820152606401610624565b6000818152600260205260409020546001600160a01b03161561158b5760405162461bcd60e51b815260206004820152601c60248201527f4552433732313a20746f6b656e20616c7265616479206d696e746564000000006044820152606401610624565b61159760008383611b51565b6001600160a01b03821660009081526003602052604081208054600192906115c09084906125dd565b909155505060008181526002602052604080822080546001600160a01b0319166001600160a01b03861690811790915590518392907fddf252ad1be2c89b69c2b068fc378daa952ba7f163c4a11628f55a4df523b3ef908290a45050565b6000826001600160a01b03168260405160006040518083038185875af1925050503d806000811461166b576040519150601f19603f3d011682016040523d82523d6000602084013e611670565b606091505b5050905080610b355760405162461bcd60e51b81526020600482015260146024820152732330b4b632b2103a379039b2b7321022ba3432b960611b6044820152606401610624565b600081815260046020526040902080546001600160a01b0319166001600160a01b03841690811790915581906116ed82610e21565b6001600160a01b03167f8c5be1e5ebec7d5bd14f71427d1e84f3dd0314c0f7b2291e5b200ac8c7c3b92560405160405180910390a45050565b6000818152600260205260408120546001600160a01b031661179f5760405162461bcd60e51b815260206004820152602c60248201527f4552433732313a206f70657261746f7220717565727920666f72206e6f6e657860448201526b34b9ba32b73a103a37b5b2b760a11b6064820152608401610624565b60006117aa83610e21565b9050806001600160a01b0316846001600160a01b031614806117e55750836001600160a01b03166117da8461098f565b6001600160a01b0316145b8061181557506001600160a01b0380821660009081526005602090815260408083209388168352929052205460ff165b949350505050565b826001600160a01b031661183082610e21565b6001600160a01b0316146118945760405162461bcd60e51b815260206004820152602560248201527f4552433732313a207472616e736665722066726f6d20696e636f72726563742060448201526437bbb732b960d91b6064820152608401610624565b6001600160a01b0382166118f65760405162461bcd60e51b8152602060048201526024808201527f4552433732313a207472616e7366657220746f20746865207a65726f206164646044820152637265737360e01b6064820152608401610624565b611901838383611b51565b61190c6000826116b8565b6001600160a01b0383166000908152600360205260408120805460019290611935908490612614565b90915550506001600160a01b03821660009081526003602052604081208054600192906119639084906125dd565b909155505060008181526002602052604080822080546001600160a01b0319166001600160a01b0386811691821790925591518493918716917fddf252ad1be2c89b69c2b068fc378daa952ba7f163c4a11628f55a4df523b3ef91a4505050565b600060ff8216156119d65760016119d9565b60005b60ff1692915050565b60006119ef8260086125f5565b8360ff16901b905092915050565b600a80546001600160a01b038381166001600160a01b0319831681179093556040519116919082907f8be0079c531659141344cd1fd0a4f28419497f9722a3daafe3b4186f6b6457e090600090a35050565b816001600160a01b0316836001600160a01b03161415611ab15760405162461bcd60e51b815260206004820152601960248201527f4552433732313a20617070726f766520746f2063616c6c6572000000000000006044820152606401610624565b6001600160a01b03838116600081815260056020908152604080832094871680845294825291829020805460ff191686151590811790915591519182527f17307eab39ab6107e8899845ad3d59bd9653f200f220920489ca2b5937696c31910160405180910390a3505050565b611b2984848461181d565b611b3584848484611c09565b61122a5760405162461bcd60e51b815260040161062490612480565b6001600160a01b038316611bac57611ba781600880546000838152600960205260408120829055600182018355919091527ff3f7a9fe364faab93b216da50a3214154f22a0a2b415b23a84c8169e8b636ee30155565b611bcf565b816001600160a01b0316836001600160a01b031614611bcf57611bcf8382611d16565b6001600160a01b038216611be657610b3581611db3565b826001600160a01b0316826001600160a01b031614610b3557610b358282611e62565b60006001600160a01b0384163b15611d0b57604051630a85bd0160e11b81526001600160a01b0385169063150b7a0290611c4d9033908990889088906004016123e6565b602060405180830381600087803b158015611c6757600080fd5b505af1925050508015611c97575060408051601f3d908101601f19168201909252611c94918101906122bf565b60015b611cf1573d808015611cc5576040519150601f19603f3d011682016040523d82523d6000602084013e611cca565b606091505b508051611ce95760405162461bcd60e51b815260040161062490612480565b805181602001fd5b6001600160e01b031916630a85bd0160e11b149050611815565b506001949350505050565b60006001611d2384610e98565b611d2d9190612614565b600083815260076020526040902054909150808214611d80576001600160a01b03841660009081526006602090815260408083208584528252808320548484528184208190558352600790915290208190555b5060009182526007602090815260408084208490556001600160a01b039094168352600681528383209183525290812055565b600854600090611dc590600190612614565b60008381526009602052604081205460088054939450909284908110611ded57611ded6126b0565b906000526020600020015490508060088381548110611e0e57611e0e6126b0565b6000918252602080832090910192909255828152600990915260408082208490558582528120556008805480611e4657611e4661269a565b6001900381819060005260206000200160009055905550505050565b6000611e6d83610e98565b6001600160a01b039093166000908152600660209081526040808320868452825280832085905593825260079052919091209190915550565b828054611eb290612649565b90600052602060002090601f016020900481019282611ed45760008555611f1a565b82601f10611eed5782800160ff19823516178555611f1a565b82800160010185558215611f1a579182015b82811115611f1a578235825591602001919060010190611eff565b50611f26929150611f2a565b5090565b5b80821115611f265760008155600101611f2b565b80356001600160a01b0381168114611f5657600080fd5b919050565b60008083601f840112611f6d57600080fd5b50813567ffffffffffffffff811115611f8557600080fd5b602083019150836020828501011115611f9d57600080fd5b9250929050565b60006101208284031215611fb757600080fd5b611fbf612558565b9050611fca8261205b565b8152611fd86020830161205b565b6020820152611fe96040830161205b565b6040820152611ffa6060830161205b565b606082015261200b6080830161205b565b608082015261201c60a0830161205b565b60a082015261202d60c0830161205b565b60c082015261203e60e0830161205b565b60e082015261010061205181840161205b565b9082015292915050565b803560ff81168114611f5657600080fd5b60006020828403121561207e57600080fd5b61208782611f3f565b9392505050565b600080604083850312156120a157600080fd5b6120aa83611f3f565b91506120b860208401611f3f565b90509250929050565b6000806000606084860312156120d657600080fd5b6120df84611f3f565b92506120ed60208501611f3f565b9150604084013590509250925092565b6000806000806080858703121561211357600080fd5b61211c85611f3f565b9350602061212b818701611f3f565b935060408601359250606086013567ffffffffffffffff8082111561214f57600080fd5b818801915088601f83011261216357600080fd5b813581811115612175576121756126c6565b612187601f8201601f19168501612582565b9150808252898482850101111561219d57600080fd5b808484018584013760008482840101525080935050505092959194509250565b600080604083850312156121d057600080fd5b6121d983611f3f565b915060208301356121e9816126dc565b809150509250929050565b600080600080610160858703121561220b57600080fd5b61221485611f3f565b9350602085013567ffffffffffffffff81111561223057600080fd5b61223c87828801611f5b565b909450925061225090508660408701611fa4565b905092959194509250565b6000806040838503121561226e57600080fd5b61227783611f3f565b946020939093013593505050565b60006020828403121561229757600080fd5b8151612087816126dc565b6000602082840312156122b457600080fd5b8135612087816126ea565b6000602082840312156122d157600080fd5b8151612087816126ea565b600080600080600061016086880312156122f557600080fd5b853567ffffffffffffffff8082111561230d57600080fd5b61231989838a01611f5b565b909750955085915061232e8960208a01611fa4565b945061014088013591508082111561234557600080fd5b5061235288828901611f5b565b969995985093965092949392505050565b6000610120828403121561237657600080fd5b6120878383611fa4565b60006020828403121561239257600080fd5b5035919050565b6000815180845260005b818110156123bf576020818501810151868301820152016123a3565b818111156123d1576000602083870101525b50601f01601f19169290920160200192915050565b6001600160a01b038581168252841660208201526040810183905260806060820181905260009061241990830184612399565b9695505050505050565b6001600160a01b038516815260606020820181905281018390528284608083013760006080848301015260006080601f19601f860116830101905082604083015295945050505050565b6020815260006120876020830184612399565b60208082526032908201527f4552433732313a207472616e7366657220746f206e6f6e20455243373231526560408201527131b2b4bb32b91034b6b83632b6b2b73a32b960711b606082015260800190565b6020808252818101527f4f776e61626c653a2063616c6c6572206973206e6f7420746865206f776e6572604082015260600190565b60208082526031908201527f4552433732313a207472616e736665722063616c6c6572206973206e6f74206f6040820152701ddb995c881b9bdc88185c1c1c9bdd9959607a1b606082015260800190565b604051610120810167ffffffffffffffff8111828210171561257c5761257c6126c6565b60405290565b604051601f8201601f1916810167ffffffffffffffff811182821017156125ab576125ab6126c6565b604052919050565b600080858511156125c357600080fd5b838611156125d057600080fd5b5050820193919092039150565b600082198211156125f0576125f0612684565b500190565b600081600019048311821515161561260f5761260f612684565b500290565b60008282101561262657612626612684565b500390565b8035602083101561059f57600019602084900360031b1b1692915050565b600181811c9082168061265d57607f821691505b6020821081141561267e57634e487b7160e01b600052602260045260246000fd5b50919050565b634e487b7160e01b600052601160045260246000fd5b634e487b7160e01b600052603160045260246000fd5b634e487b7160e01b600052603260045260246000fd5b634e487b7160e01b600052604160045260246000fd5b80151581146113e557600080fd5b6001600160e01b0319811681146113e557600080fdfea2646970667358221220cc7d725b946454ec4b4230792727f43cc201c4ef2bc3d4e8bd05dd1f8862e53d64736f6c63430008070033",
  "linkReferences": {},
  "deployedLinkReferences": {}
}